:020000040800F2
:10000000C8070020310200086D0200086F020008D6
:100010007102000873020008750200080000000069
:10002000000000000000000000000000770200084F
:1000300079020008000000007B0200087D02000831
:100040007F0200087F0200087F0200087F0200088C
:100050007F0200087F0200087F0200087F0200087C
:100060007F0200087F0200087F0200087F0200086C
:100070007F0200087F0200087F0200087F0200085C
:100080007F0200087F0200087F0200087F0200084C
:100090007F0200087F0200087F0200087F0200083C
:1000A0007F0200087F0200087F0200087F0200082C
:1000B0007F0200087F0200087F0200087F0200081C
:1000C0007F0200087F0200087F0200087F0200080C
:1000D0007F0200087F0200087F0200087F020008FC
:1000E0007F0200087F0200087F0200087F020008EC
:1000F0007F0200087F0200087F0200087F020008DC
:100100007F0200087F0200087F0200087F020008CB
:100110007F0200087F0200087F0200087F020008BB
:100120007F0200087F0200087F0200087F020008AB
:100130007F0200087F0200087F0200087F0200089B
:100140007F0200087F0200087F0200087F0200088B
:100150007F0200087F0200087F0200087F0200087B
:100160007F0200087F0200087F0200087F0200086B
:100170007F0200087F0200087F02000800000000E4
:100180007F0200087F02000800F002F800F041F84A
:100190000AA090E8000C82448344AAF10107DA45E2
:1001A00001D100F036F8AFF2090EBAE80F0013F0F3
:1001B000010F18BFFB1A43F001031847780E000027
:1001C000980E0000103A24BF78C878C1FAD85207B8
:1001D00024BF30C830C144BF04680C6070470000C1
:1001E0000023002400250026103A28BF78C1FBD840
:1001F000520728BF30C148BF0B607047642900F028
:10020000A180002070471FB500F00EFF1FBD10B584
:1002100010BD00F0B5F91146FFF7F5FF00F0BEFC88
:1002200000F0D3F903B4FFF7F2FF03BC00F0DAF9F2
:1002300016481749174B99423CBF50F8042B41F818
:10024000042BF8D314494FF000028B4238BF43F817
:10025000042BFAD3DFF84400016841F47001016017
:10026000BFF34F8FBFF36F8F0D480047FEE7FEE7E8
:10027000FEE7FEE7FEE7FEE7FEE7FEE7FEE7FEE756
:1002800008480949094A0A4B704700005410000801
:1002900000000020F4000020C807002088ED00E0E6
:1002A00089010008C8010020C8070020C8030020F9
:1002B000C80300200FB41CB5074B06AA7B4469464F
:1002C0000090059800F01DF90020694600F02CF917
:1002D0001CBC5DF814FB0000690200002DE9F04130
:1002E0000E460446002020622046E168884730B36D
:1002F000252805D0D4E901219047206A401CF2E767
:10030000E168204600278847050018D0A5F1410084
:10031000192802D820354FF4006732462946204676
:100320002760FFF76BFF40B1012804D0F61D26F0CF
:1003300007060836D8E7361DD6E72846DAE7206AEA
:10034000BDE8F0812DE9F0410646002410687529CA
:10035000314616A510D0AFF30080002802DA4042E3
:1003600013A507E031688A0701D512A502E0490705
:1003700004D511A5012401E0AFF3008000210A2279
:1003800006F1240709E0B0FBF2FCB0FBF2F302FB3C
:100390001C00303078541846491C0028F3D12346FD
:1003A0002A463046BDE8F04100F04CB8000000009D
:1003B0002D0000002B0000002000000010B5431CA1
:1003C00002E010F8011B71B18107FAD14FF0013240
:1003D00002C88C1A8C4314EAC211F9D0C01A0A065A
:1003E00003D0C01E10BDC01A10BD0A0401D0801E6B
:1003F00010BD0902FCD0401E10BD4FF000020429C0
:10040000C0F0128010F0030C00F09580CCF1040CC9
:10041000BCF1020F18BF00F8012BA8BF20F8022B77
:10042000A1EB0C0100F087B85FEAC17C24BF00F8A3
:10043000012B00F8012B48BF00F8012B70477047D3
:10044000704770472DE9F0470D469946924604469D
:1004500000F124080168880604D5E06921F0100144
:10046000216000E00120A84201DD471B00E00027D9
:10047000A1697A1902EB0900081AA0612078C00668
:1004800002D42046AFF30080002608E0D4E9012121
:100490001AF806009047206A401C761C20624E45E0
:1004A000F4DB2078C0060AD52046AFF3008006E0D2
:1004B000D4E9012130209047206A401C2062381E78
:1004C000A7F10107F4DC07E0D4E9012118F80500E1
:1004D0009047206A401C2062281EA5F10105F3DC2C
:1004E0002046AFF300802078000602D50220BDE848
:1004F000F0870120FBE7000001694A1C02610878CF
:10050000704700B58FB0CDE9013100210591054953
:100510007944CDE9031011466846FFF7DFFE0FB0BE
:1005200000BD0000E5FFFFFF0A6802F8010B0A604A
:1005300070474FF0000200B51346944696462039A6
:1005400022BFA0E80C50A0E80C50B1F12001BFF48C
:10055000F7AF090728BFA0E80C5048BF0CC05DF8F2
:1005600004EB890028BF40F8042B08BF704748BF40
:1005700020F8022B11F0804F18BF00F8012B7047B4
:10058000754600F02BF8AE4605006946534620F04C
:100590000700854618B020B5FFF772FEBDE8204081
:1005A0004FF000064FF000074FF000084FF0000B2F
:1005B00021F00701AC46ACE8C009ACE8C009ACE8E2
:1005C000C009ACE8C0098D46704710B50446AFF3CA
:1005D00000802046BDE81040FFF724BE0048704769
:1005E0006801002001491820ABBEFEE7260002008A
:1005F000704700000348406920F480700149486159
:1006000070470000001000480348406940F48070C3
:100610000149486170470000001000482648C06C3E
:1006200040F012002449C86400204FF09041086057
:10063000C8606FF03000214908600846006840F04B
:10064000100008601D480830006820F030001B4989
:10065000083108600846006840F030000860081F54
:10066000006820F00400091F086014480C3000687E
:1006700020F0300011490C3108606FF4403010490F
:1006800008600846006840F48030086008468068CA
:1006900020F4403088600846806840F4403088602C
:1006A0000846406820F4807048600846C06820F41E
:1006B0004030C8607047000000100240000400484D
:1006C000001000480348006840F004000149086039
:1006D00070470000140400485E49096821F00701D2
:1006E0005C4A11601146096841F0020111605A49E3
:1006F000096841F48071584A116000BF5649096881
:1007000001F480610029F9D010205349496821F093
:10071000F851514A51601146496841EA00615160FF
:100720001146096821F08071116000BF4A490968CB
:1007300001F00071B1F1007FF8D04749C96821F09C
:100740000301454AD1601146C96841F00201D160F8
:100750001146C96821F4FE4141F4A051D16011460F
:10076000C96821F0700141F01001D1601146C968DB
:1007700021F0C061D1601146C96841F08071D1603B
:100780001146096841F08071116000BF3249096863
:1007900001F000710029F9D02F49896821F0030187
:1007A0002D4A91601146896841F00301916000BFB4
:1007B0002949896801F00C010C29F9D12649896879
:1007C00021F0F001244A91601146896821F4E0612A
:1007D00091601146896821F4605191601146096861
:1007E00021F08061116000BF1B49096801F0806140
:1007F000B1F1806FF8D01849096921F4FE41164A19
:1008000011611146096941F4C0511161114609692C
:1008100041F4003111611146096941F480311161DF
:100820001146096841F08061116000BF0A490968FA
:1008300001F080610029F9D007498831096821F465
:100840004001054AC2F888101146096E41F40011B2
:100850001166704700200240001002402448C06C1E
:1008600040F001002249C8644FF090400068002029
:100870004FF0904108600846006840F00A000860A8
:100880000846006A40F0110008621948806D40F087
:100890000100174988654FF4FA5001068862000686
:1008A000806940F2033188434FF0804188610846F7
:1008B000806946F668010843C906886108460068F1
:1008C00040F0800008600846006A40F011000862AD
:1008D000C820C862074800784863064800788863E3
:1008E0000846406940F001004861012008607047F7
:1008F00000100240000000201A48C06C40F00800C0
:100900001849C8641848006820F4705016490860F7
:100910000846006840F42050086013482030006802
:1009200040F0EE601049203108600F480830006840
:1009300040F470500C4908310860081D006820F42C
:100940007050091D08600846006840F4A050086017
:100950000548001D006820F060000349091D08607B
:100960007047000000100240000C004800B50D4820
:10097000806D40F400300B4988650A488830006873
:1009800020F00C00C1F888000846D0F8880040F03C
:100990000400C1F88800FFF7AFFF034800F010F82B
:1009A00000BD0000001002400044004064224243A9
:1009B0000723B2FBF3F100BF4A1E111EFCD17047A2
:1009C000016821F001010160016821F0102101603E
:1009D000016821F400410160416821F44051416007
:1009E00042F28D01C160016841F00C0101601E49B5
:1009F00088421BD1016841F020010160016821F0AB
:100A000040010160016821F010010160016821F0DE
:100A100080010160016821F480710160016821F0AA
:100A200040010160016821F0010101600F49884225
:100A300009D1016A41F0400101620D49096841F0A4
:100A4000C0010B4A1160016841F00101016000BF63
:100A5000C16901F400110029FAD000BFC16901F495
:100A600080010029FAD07047004C0040004400404B
:100A700008380140014600BFC86900F02000002886
:100A8000FAD0888CC0B270470146C86900F02000D7
:100A900010B1888CC0B270470020FCE7F0B5044666
:100AA0000E46174600250CE000BFE06900F080000C
:100AB0000028FAD0705D20854FF49670FFF776FF1E
:100AC0006D1CBD42F0D300BFE06900F0400000287B
:100AD000FAD0E06920F04000E061F0BD48B1642246
:100AE00042430723B2FBF3F100BF4A1E111EFCD1A3
:100AF00000BF70471CB500200190009000242548DD
:100B0000FFF7C2FF01909DF80400002840D032E0BA
:100B10009DF80400782803D09DF8040058280AD1D5
:100B2000012201A91B48FFF7B9FF04221AA11948A5
:100B3000FFF7B4FF1CBD9DF804007F2809D1002CED
:100B400015DD601EC4B2012201A91248FFF7A6FFFD
:100B50000DE0022C00DB12E09DF804000DF804000B
:100B6000601CC4B2012201A90A48FFF797FF094897
:100B7000FFF780FF01909DF804000D28C8D100BF49
:100B8000684600F041F8042203A10248FFF786FFFF
:100B900000BFCFE7004400400D0A3E00FFF79CFD78
:100BA000FFF73CFDFFF7E2FEFFF758FE0948FFF7AD
:100BB00005FC0446224607490748FFF76FFF07E098
:100BC000FFF798FFFFF720FD00F0A0F8FFF712FDF8
:100BD000F6E70000D30000200044004030B9084A86
:100BE000525C4FF080435A63064B9971012805D13E
:100BF000034A525C83079A63024A9173704700006C
:100C0000000000205801002070B505460026002491
:100C100063E0285D62284FD00EDC4E2849D006DC08
:100C2000422848D043281BD04C284ED130E05028D1
:100C30000FD0522849D11AE06E283BD004DC63283B
:100C40000FD06C2841D124E0702803D072283CD109
:100C50000EE000BF0020244901EBC401C8713AE056
:100C600000BF0120204901EBC401C87133E000BF7F
:100C70001D4800EBC4008079052808D01A4A02EB11
:100C8000C4029279511CE0B2FFF7A8FF012622E0CE
:100C900000BF154800EBC400807948B1124A02EB4E
:100CA000C4029279521E91B2E0B2FFF797FF01267B
:100CB00011E000BF0FE000BF00200B4901F8340035
:100CC000012001EBC401C87105E0122207A10D4803
:100CD000FFF7E4FE00BF00BF641C022C99DB16B1D5
:100CE0000948FFF7FBFE70BD580100200D0A496E50
:100CF00076616C696420436F6D6D616E640D0A3EB0
:100D00000000000000440040400D03002DE9F041C8
:100D1000002500260027002424E1A54800EBC4009C
:100D2000C07901287AD104EBC40000EB0410A1497A
:100D300001EB80009E4911F83410405C00F0E000A7
:100D4000402870D004DC00286AD0202869D104E053
:100D5000802867D0A028F9D1BFE004EBC40000EBE5
:100D60000410944901EB8000914911F83410405C63
:100D700000F01F00052808DDFFF7A4FC1C228EA14F
:100D80009548FFF78BFE00BFFEE704EBC40101EBC3
:100D90000411884A02EB8101854A12F83420895CEB
:100DA00001F01F01824A02EBC4029279501A002816
:100DB00001DB014600E04142A94217DD04EBC4011A
:100DC00001EB04117B4A02EB8101794A12F83420CD
:100DD000895C01F01F01764A02EBC4029279501A35
:100DE000002801DB014600E04142CDB204EBC40221
:100DF00002EB04126F4B03EB82026D4B13F834309D
:100E0000D25C02F01F01E0B2FFF7E8FE684810F87C
:100E10003400401C664901F83400A1E0A1E002E082
:100E20008FE097E023E004EBC40000EB041061497D
:100E300001EB80005E4911F83410405C00F01F00A7
:100E4000B0420CDD04EBC40000EB0410594901EB87
:100E50008000574911F83410405C00F01F065448D8
:100E600010F83400401C524901F8340078E0504832
:100E700000EBC4000079012808D1FFF723FC1C22F5
:100E80004DA15548FFF70AFE00BFFEE70120484983
:100E900001EBC4010871464810F83400401C444975
:100EA00001EBC401487104EBC40000EB041041499C
:100EB00001EB80003E4911F83410405C00F01F0047
:100EC000401E3B4901EBC4014880394810F834000A
:100ED000401C374901F8340042E0354800EBC400BB
:100EE0000079012808D0FFF7EDFB1C2232A13A4817
:100EF000FFF7D4FD00BFFEE72D4800EBC400B0F9BA
:100F0000020000280CDA0020294901EBC401087115
:100F1000274810F83400401C254901F834000FE040
:100F2000234800EBC4004079214901F83400084609
:100F300000EBC4004088401E00B201EBC4014880B1
:100F40000EE000201A4901F8340001EBC401C87119
:100F5000012705E0112221A11F48FFF79FFD00BFD7
:100F600000BF641C022CFFF6D8AE95B16421204866
:100F7000FFF743FA2A461FA11D48FFF79BF9642299
:100F80001B491548FFF78AFD1D4905FB01F0FFF7D6
:100F9000A5FD26B11B4906FB01F0FFF79FFD27B118
:100FA0001F2219A10C48FFF779FDBDE8F081000070
:100FB000580100200B0000204572726F722053749C
:100FC0006174653B20436865636B2072656369707B
:100FD000650D0A3E0000000000440040496E766145
:100FE0006C6964205265636970650D0A3E000000FB
:100FF000F4000020646966663A2025640D0A00004A
:10100000400D0300A086010052656369706520658C
:101010006E6465643B202763632720746F207265CC
:10102000706C61790D0A3E004FF04070E1EE100ADD
:10103000704700005410000800000020F400000079
:10104000C401000848110008F4000020D406000084
:10105000E001000804070A0D1013202520230020BA
:10106000252023802124A0202240234022235F5FCB
:101070005F240000000000000000000000000000ED
:101080000000000000000000000000000000000060
:101090000000000000000000000000000000000050
:1010A0000000000000000000000000000000000040
:1010B0000000000000000000000000000000000030
:1010C00000000020252023802124A020224023404E
:1010D00022235F5F5F24000000000000000000008A
:1010E0000000000000000000000000000000000000
:1010F00000000000000000000000000000000000F0
:1011000000000000000000000000000000000000DF
:1011100000000000000000000000000000000000CF
:1011200000000000000000456E74657220274363D4
:101130002720746F20626567696E20726F7574690D
:081140006E653A0D0A3E000045
:040000050800018965
:00000001FF
