:020000040800F2
:100000002008002049020008850200088702000835
:10001000890200088B0200088D0200080000000021
:100020000000000000000000000000008F02000837
:1000300091020008000000009302000895020008E9
:10004000970200089702000897020008970200082C
:10005000970200089702000897020008970200081C
:10006000970200089702000897020008970200080C
:1000700097020008970200089702000897020008FC
:1000800097020008970200089702000897020008EC
:1000900097020008970200089702000897020008DC
:1000A00097020008970200089702000897020008CC
:1000B00097020008970200089702000897020008BC
:1000C00097020008970200089702000897020008AC
:1000D000970200089702000897020008970200089C
:1000E000970200089702000897020008970200088C
:1000F000970200089702000897020008970200087C
:10010000970200089702000897020008970200086B
:10011000970200089702000897020008970200085B
:10012000970200089702000897020008970200084B
:10013000970200089702000897020008970200083B
:10014000970200089702000897020008970200082B
:10015000970200089702000897020008970200081B
:10016000970200089702000897020008970200080B
:10017000970200089702000897020008000000009C
:10018000970200089702000800F002F800F04DF80E
:100190000AA090E8000C82448344AAF10107DA45E2
:1001A00001D100F042F8AFF2090EBAE80F0013F0E7
:1001B000010F18BFFB1A43F0010318474414000055
:1001C00064140000103A24BF78C878C1FAD85207E6
:1001D00024BF30C830C144BF04680C6070470000C1
:1001E0000023002400250026103A28BF78C1FBD840
:1001F000520728BF30C148BF0B607047642900F028
:10020000D780632900F09B82002070471FB501F062
:10021000C3F900F00DFD04000020002101F0A6F953
:10022000401C60601FBD10B510BD00F0C6FC11463B
:10023000FFF7ECFF01F052F900F0ECFC03B4FFF71C
:10024000F2FF03BC00F038FD16481749174B9942DE
:100250003CBF50F8042B41F8042BF8D314494FF05D
:1002600000028B4238BF43F8042BFAD3DFF8440076
:10027000016841F470010160BFF34F8FBFF36F8FCE
:100280000D480047FEE7FEE7FEE7FEE7FEE7FEE774
:10029000FEE7FEE7FEE7FEE708480949094A0A4B80
:1002A0007047000030170008000000209000002078
:1002B0002008002088ED00E08901000820020020CD
:1002C0002008002020040020200400200FB41CB5CA
:1002D000074B06AA7B4469460090059800F00DFA8A
:1002E0000020694600F01CFA1CBC5DF814FB0000FD
:1002F000490400002DE9F0410E460446002020622A
:100300002046E168884730B3252805D0D4E901218B
:100310009047206A401CF2E7E168204600278847A2
:10032000050018D0A5F14100192802D820354FF456
:1003300000673246294620462760FFF75FFF40B13D
:10034000012804D0F61D26F007060836D8E7361D2A
:10035000D6E72846DAE7206ABDE8F08170B50C469A
:100360000546012A05D02878800600D5EA690023D1
:1003700002E0012305E05B1C934202D2E05C00280E
:10038000F9D1A869E618C01AA861286A1844286239
:100390002846AFF3008004E0D5E9012114F8010BF1
:1003A0009047B442F8D32846AFF3008070BD0000F8
:1003B0002DE9F0410646002410687529314616A53E
:1003C00010D0AFF30080002802DA404213A507E006
:1003D00031688A0701D512A502E0490704D511A5A5
:1003E000012401E0AFF3008000210A2206F1240776
:1003F00009E0B0FBF2FCB0FBF2F302FB1C00303072
:1004000078541846491C0028F3D123462A46304622
:10041000BDE8F04100F013B9000000002D0000001D
:100420002B000000200000000FB400B58DB010A913
:10043000099000910B904FF0FF300A9000200C9033
:10044000064878440690064878446A4607900F9913
:1004500009A800F095F90DB05DF814FB5B030000EE
:10046000730300002DE9FF5F1D464FF0FF3B9146EF
:100470004FF000085F46D5E90146A96901987F1C45
:100480008847296A824688470028F6D1BAF1FF3F9B
:100490000CD0002E24F4C06419DD600614D5BAF126
:1004A0002B0F09D0BAF12D0F0ED103E0584604B03E
:1004B00000F07EB844F48064A96901987F1C8847E5
:1004C000761E8246002E02DDBAF1300F03D0B9F15C
:1004D000000F26D032E0A969761E01987F1C44F4F3
:1004E00000748847002E824605DDBAF1780F06D0E9
:1004F000BAF1580F03D0B9F1000F10D01EE0B9F1D6
:10050000000F02D0B9F1100F18D1A969761E019819
:100510007F1C24F4007488478246102002E00820E3
:1005200000E00A20814609E0A96908FB0908761E57
:1005300001987F1C44F4007488478246002E05DD34
:100540004946504600F007F90028EDDAE9690198BC
:100550008847A00502D46FF00100A8E7E00725D185
:10056000600613D5600502D5C8F1000000E04046E2
:1005700029680A1D2A600968220501D5087015E05E
:10058000220701D5088011E008600FE02868011DEE
:1005900029600068210502D580F8008006E0210767
:1005A00002D5A0F8008001E0C0F8008038467EE760
:1005B00030BCBDE8C09F10B5431C02E010F8011B21
:1005C00071B18107FAD14FF0013202C88C1A8C4305
:1005D00014EAC211F9D0C01A0A0603D0C01E10BD19
:1005E000C01A10BD0A0401D0801E10BD0902FCD043
:1005F000401E10BD4FF000020429C0F0128010F020
:10060000030C00F0EF80CCF1040CBCF1020F18BF1A
:1006100000F8012BA8BF20F8022BA1EB0C0100F081
:10062000E1B85FEAC17C24BF00F8012B00F8012B80
:1006300048BF00F8012B70477047704770472DE99D
:10064000F0470D4699469246044600F12408016899
:10065000880604D5E06921F01001216000E0012046
:10066000A84201DD471B00E00027A1697A1902EBCF
:100670000900081AA0612078C00602D42046AFF312
:100680000080002608E0D4E901211AF8060090470E
:10069000206A401C761C20624E45F4DB2078C006A0
:1006A0000AD52046AFF3008006E0D4E901213020CE
:1006B0009047206A401C2062381EA7F10107F4DC35
:1006C00007E0D4E9012118F805009047206A401C92
:1006D0002062281EA5F10105F3DC2046AFF300805F
:1006E0002078000602D50220BDE8F0870120FBE754
:1006F00001694A1C02610878704700B58FB0CDE9E6
:1007000001310021059105497944CDE903101146D5
:100710006846FFF7EFFD0FB000BD0000E5FFFFFFEB
:100720000A6802F8010B0A60704710B5436913B1FB
:10073000AFF3008001E0FFF711FE012010BD127839
:1007400000F124010A7000224A700122EDE71168CD
:100750004FF0FF32E9E73A2800D2303820F020028B
:10076000412A01D3A2F13700884201D34FF0FF3074
:100770007047000002681144137801601846704702
:10078000D1600549794451610449794411620021DD
:100790001161114600F054B8EDFFFFFFA100000009
:1007A000426842B1016811F8013B23B1521EC0E911
:1007B0000012184670470121C160881E70474268C8
:1007C0005AB1C368016843B983688B4205D0491E9A
:1007D000521CC0E90012002070474FF0FF307047F4
:1007E0004FF0000200B5134694469646203922BFCA
:1007F000A0E80C50A0E80C50B1F12001BFF4F7AF15
:10080000090728BFA0E80C5048BF0CC05DF804EBF6
:10081000890028BF40F8042B08BF704748BF20F864
:10082000022B11F0804F18BF00F8012B704710B554
:10083000044600F0E7F90068005D00F0010010BD1B
:100840002DE9F34F4FF0000A0C4656468DB00120BB
:100850000C9001F10C000B9062690B9801219047FC
:10086000051E2DD0252D2CD0216A8847C0B1626984
:100870000B9801219047216A88470028F7D16269C7
:10088000411E0B98904700E0761CA1690D9888479F
:10089000216A88470028F7D1E1690D988847DBE78E
:1008A000A1690D988847A842074601D1761CD3E775
:1008B000E1690D9888477F1C02D1BAF1000F6FD013
:1008C0006BE162690B9800273D46394690472A281C
:1008D00004D162690B98012190470125DFF8D0828D
:1008E00062690B9801219047A0F130010A290AD2D0
:1008F0004745E5DC07EB870100EB4107303FDFD4DC
:1009000045F01005ECE7E90601D46FF000476C28CC
:100910000AD04C2814D0682815D06A280DD0742825
:100920001CD07A281AD01DE062690B9801219047EB
:100930006C2802D045F0040514E045F002050DE0F6
:1009400045F020050AE062690B980121904768286C
:1009500002D045F0080505E045F4006562690B9892
:1009600001219047C4E9015765283DD019DC58287A
:100970007AD00CDC452837D004DC252826D0412845
:100980009ED131E046282FD0472899D12CE05B2812
:1009900077D0612828D063287CD0642823D15AE0FE
:1009A000F6E06F2848D008DC66281DD067281BD0E9
:1009B000692821D06E2816D127E0702845D07328E9
:1009C00068D0752847D078280DD14DE0A1690D98E1
:1009D0008847252805463FF469AFE1690D988847A7
:1009E0006D1C3FF46AAFD8E00D9923466A466FF05C
:1009F0000100AFF30080C5E045F0400023464FF012
:100A000000026060A80736D43EE0E8077FF447AFF5
:100A10002068011D21600068290501D506701BE7CB
:100A2000290701D5068017E7A90703D5F117C0E903
:100A3000006111E706600FE745F0400023464FF0E4
:100A400008026060A80716D41EE040F60E0125EAF1
:100A50000100606016E045F0400023464FF00A02B6
:100A60006060A80707D40FE045F040006060A80769
:100A700008D5234610220D996FF00100AFF30080D6
:100A800080E007E0102223460D996FF00100FFF788
:100A9000E9FC77E04FF0000963284F46C8464B4613
:100AA000CB4602D05B2806D038E0E80601D401200E
:100AB000A060012732E06269D4F80CB00B980121E4
:100AC00090475E2807D14FF0010949466269D4F882
:100AD0000CB00B989047216939B900210A4603AB45
:100AE00043F82120491C0829FADBD8B3216949B30E
:100AF00008F1010862690B98012190475D28F4D143
:100B0000B9F1000F09D0002003A951F82020D243E9
:100B100041F82020401C0828F7DB03AB206900289F
:100B200020794FEA40701ED05B462246CDF8008007
:100B3000CDE901970D9900286FF0010020DAAFF39D
:100B400000801FE0C11703AA00EBD1614B1121F017
:100B50001F0102EB8302411A1368012088400343FE
:100B60001360C7E719E00D99224600286FF00100D5
:100B7000009702DAAFF3008004E0AFF3008001E0F9
:100B8000AFF3008000280ADA401C06D10C9820B18F
:100B90004FF0FF300FB000F00DB85046FAE7E9070C
:100BA00001D10AF1010A064400200C9054E600002D
:100BB000CCCCCC0C30BCBDE8C08F754600F034F80E
:100BC000AE4605006946534620F00700854618B03A
:100BD00020B5FFF761FBBDE820404FF000064FF065
:100BE00000074FF000084FF0000B21F00701AC4662
:100BF000ACE8C009ACE8C009ACE8C009ACE8C00981
:100C00008D46704710B500F013F8001D10BD00BFF1
:100C10005D09000010B50446AFF300802046BDE832
:100C20001040FFF70BBB000000487047C0010020D8
:100C300000487047E00100204FF0013C50F8042BC1
:100C400051F8043B9A4221D1A2EB0C03934313EADF
:100C5000CC1317D150F8042B51F8043B9A4215D10C
:100C6000A2EB0C03934313EACC130BD150F8042BE3
:100C700051F8043B9A4209D1A2EB0C03934313EAC7
:100C8000CC13DBD04FF00000704700BFD01A01BA80
:100C9000B1FA81F101F0180122FA01F0CB40C1F163
:100CA0002001DBB2C0B2C01A2CFA01F3D11A914371
:100CB00011EAC311E6D1704701491820ABBEFEE727
:100CC000260002007047000070B514480088451ED9
:100CD000162213A1184800F0E1FB002416E06D1C59
:100CE000164830F8140080B164211548FFF782FCE3
:100CF000124830F814302A4612A11148FFF7E6FADC
:100D000064220F490C4800F0C9FB641C652CE6DB2B
:100D1000042216A1084800F0C1FB70BD8A00002023
:100D20000D0A484953544F524752414D20444154B3
:100D3000413A0D0A0000000000440040F400002089
:100D4000900000202564206D6963726F7365636F86
:100D50006E6473202D2D3E202564206F63637572B1
:100D6000616E63652873290D0A0000000D0A0000FA
:100D700010B50B4802880B490B48FFF7A7FA64220D
:100D800009490A4800F08AFB084800F07DFB044648
:100D9000592C01D0792C01D100F00AF810BD0000C7
:100DA0008A000020A41500089000002000440040A4
:100DB0007CB5002500200090019039221AA1284816
:100DC00000F06CFB264800F05FFB044614E0642151
:100DD0002448FFF70FFC224623A12248FFF776FAAA
:100DE000642220491E4800F059FB0DF805406D1C97
:100DF0001B4800F049FB04460D2CE8D10A2C01D019
:100E0000042DE4DB194A1AA16846FFF70DFB1748C9
:100E1000028818A11348FFF759FA642211491048B3
:100E200000F03CFB7CBD0000456E74657220796F5C
:100E30007572206E6577206C6F77657220626F75B2
:100E40006E64207468656E2068697420656E7465D0
:100E500072202835302D39393530293A0D0A0000F5
:100E60000044004090000020256300008A0000201C
:100E7000256400004E6577206C6F776572206C6981
:100E80006D69743A2025640D0A0000002648C06C84
:100E900040F012002449C86400204FF090410860DF
:100EA000C8606FF03000214908600846006840F0D3
:100EB000100008601D480830006820F030001B4911
:100EC000083108600846006840F030000860081FDC
:100ED000006820F00400091F086014480C30006806
:100EE00020F0300011490C3108606FF44030104997
:100EF00008600846006840F4803008600846806852
:100F000020F4403088600846806840F440308860B3
:100F10000846406820F4807048600846C06820F4A5
:100F20004030C860704700000010024000040048D4
:100F300000100048F0B5002300220125AE073560FF
:100F40002FE04FF080452D6905F002054DB3B2F555
:100F50007A7F04D300254FF08046356022E023B924
:100F60004FF080456C6B01231BE04FF08045696BAF
:100F7000081B0C460C4D2D88A84212D30A4D2D8813
:100F80006435A8420DD8084D2D88451B074E36F80C
:100F900015506D1C044E3688861B044F27F81650DA
:100FA000521CCEE700BFF0BD8A000020F4000020F4
:100FB00070B50025002425221BA1244800F06EFAFC
:100FC0000120810708608007406B2149086023E009
:100FD0004FF08040006900F0020090B14FF0804077
:100FE000446B1B480068201A1A49884206D801251C
:100FF000202219A1154800F051FA0FE000F03CF84A
:101000000AE04FF08040446A11480068201A1149F4
:10101000884201D900F030F8002DD9D000BF00205F
:101020004FF08041086070BD426567696E6E696E01
:101030006720506F776572204F6E2053656C662075
:10104000546573742E2E2E0D0A0D0A0000440040C4
:101050008C000020A0860100506F776572204F6ED3
:101060002053656C66205465737420535543434583
:1010700053530D0A0D0A000070B51D2213A11A4822
:1010800000F00CFA1948FFF796FA05462A46174968
:10109000154800F003FA144800F0F6F904464E2C07
:1010A00001D06E2C08D100F02FF8142210A10E48A8
:1010B00000F0F4F900BFFEE7592C01D0792C04D1DF
:1010C0004FF08040406B0F49086070BD506F7765EE
:1010D00072204F6E2053656C6620546573742046F1
:1010E00041494C45440D0A000044004043000020A3
:1010F00045786974696E672050726F6772616D0D13
:101100000A0000008C0000200348006840F0040042
:101110000149086070470000140400485E490968EE
:1011200021F007015C4A11601146096841F0020193
:1011300011605A49096841F48071584A116000BF32
:101140005649096801F480610029F9D010205349FB
:10115000496821F0F851514A51601146496841EA05
:10116000006151601146096821F08071116000BF73
:101170004A49096801F00071B1F1007FF8D0474990
:10118000C96821F00301454AD1601146C96841F0A0
:101190000201D1601146C96821F4FE4141F4A05119
:1011A000D1601146C96821F0700141F01001D16091
:1011B0001146C96821F0C061D1601146C96841F08B
:1011C0008071D1601146096841F08071116000BFE3
:1011D0003249096801F000710029F9D02F49896866
:1011E00021F003012D4A91601146896841F0030105
:1011F000916000BF2949896801F00C010C29F9D1DF
:101200002649896821F0F001244A916011468968D5
:1012100021F4E06191601146896821F46051916088
:101220001146096821F08061116000BF1B490968FF
:1012300001F08061B1F1806FF8D01849096921F49B
:10124000FE41164A11611146096941F4C05111610C
:101250001146096941F4003111611146096941F4EF
:10126000803111611146096841F08061116000BF51
:101270000A49096801F080610029F9D007498831DD
:10128000096821F44001054AC2F888101146096E28
:1012900041F4001111667047002002400010024026
:1012A0001948C06C40F001001749C8644FF09040E5
:1012B000006800204FF0904108600846006840F048
:1012C000020008600846006A40F0010008620E480B
:1012D000806D40F001000C498865502081068862CD
:1012E0008006406940F0010048610846006A00201D
:1012F00008620846806940F0010088610846006A7B
:1013000040F0010008627047001002401A48C06CAB
:1013100040F008001849C8641848006820F470506C
:10132000164908600846006840F4205008601348D9
:101330002030006840F0EE601049203108600F480E
:101340000830006840F470500C4908310860081DEE
:10135000006820F47050091D08600846006840F4D9
:10136000A05008600548001D006820F06000034997
:10137000091D08607047000000100240000C004882
:1013800000B50D48806D40F400300B4988650A486F
:101390008830006820F00C00C1F888000846D0F8BA
:1013A000880040F00400C1F88800FFF7AFFF034851
:1013B00000F010F800BD00000010024000440040A2
:1013C000642242430723B2FBF3F100BF4A1E111E01
:1013D000FCD17047016821F001010160016821F032
:1013E00010210160016821F400410160416821F48D
:1013F0004051416042F28D01C160016841F00C0131
:1014000001601E4988421BD1016841F02001016042
:10141000016821F040010160016821F010010160C4
:10142000016821F080010160016821F48071016090
:10143000016821F040010160016821F001010160B3
:101440000F49884209D1016A41F0400101620D490A
:10145000096841F0C0010B4A1160016841F00101C7
:10146000016000BFC16901F400110029FAD000BF7A
:10147000C16901F480010029FAD07047004C004096
:101480000044004008380140014600BFC86900F030
:1014900020000028FAD0888CC0B27047F0B504460E
:1014A0000E46174600250CE000BFE06900F0800002
:1014B0000028FAD0705D20854FF49670FFF780FF0A
:1014C0006D1CBD42F0D300BFE06900F04000002871
:1014D000FAD0E06920F04000E061F0BD70B5FFF7A0
:1014E0001DFEFFF7D3FCFFF74BFFFFF7D9FEFFF719
:1014F0005FFD27E0FFF73CFCFFF71CFDFFF7E4FB77
:101500001248FFF758F805462A4610491048FFF7D9
:10151000C5FF0F48FFF7B8FF04464E2C01D06E2CD4
:1015200007D1FFF7F1FD14220AA10948FFF7B6FF22
:1015300009E0002004E000210B4A22F81010401CB2
:101540006528F8DBD6E700BF002070BD0000002052
:101550000044004045786974696E672050726F6777
:1015600072616D0D0A000000F400002010B5002922
:101570000AD00878002807D005487844FFF75CFBBC
:10158000002801D0002010BD0248784410BD0000A2
:10159000A60000009E0000004FF04070E1EE100A2F
:1015A00070470000576F756C6420796F75206C6907
:1015B0006B6520746F206368616E67652074686571
:1015C0002063757272656E74206C6F77657220622D
:1015D0006F756E64206F66202564206D6963726F7D
:1015E0007365636F6E64733F202859203D207965D1
:1015F000732C204E203D206E6F293A0D0A0000000A
:10160000301700080000002090000000C40100080E
:10161000C01700089000002090070000E0010008BB
:101620001001000043000000F8FFFFFF00404040B1
:1016300040404040404041414141414040404040A5
:101640004040404040404040404040404005020251
:101650000202020202020202020202020220202010
:10166000202020202020200202020202020290906C
:10167000909090901010101010101010101010106A
:1016800010101010101010100202020202028888BE
:1016900088888888080808080808080808080808CA
:1016A00008080808080808080202020240000000B2
:1016B000000000000000000000000000000000002A
:1016C000000000000000000000000000000000001A
:1016D000000000000000000000000000000000000A
:1016E00000000000000000000000000000000000FA
:1016F00000000000000000000000000000000000EA
:1017000000000000000000000000000000000000D9
:1017100000000000000000000000000000000000C9
:1017200000000000000000000000000000000000B9
:10173000576F756C6420796F75206C696B652074C8
:101740006F2067656E657261746520616E6F746885
:10175000657220686973746F6772616D3F202859E4
:10176000203D207965732C204E203D206E6F293A54
:101770000D0A00576F756C6420796F75206C696B6A
:101780006520746F2074727920616E6F7468657261
:1017900020706F776572206F6E2073656C662074A1
:1017A0006573743F202859203D207965732C204EA5
:1017B000203D206E6F293A0D0A00B603000000009C
:040000050800018965
:00000001FF
